:020000040800F2
:1000000098860020E1010008A7440008334000085A
:10001000A5440008C7100008BD69000800000000E2
:100020000000000000000000000000006D4A000811
:100030006712000800000000954500086F4A00089C
:10004000FB010008FB010008FB010008FB010008A0
:10005000FB010008FB010008FB010008FB01000890
:10006000FB010008FB010008FB010008FB01000880
:10007000FB010008FB01000891110008FB010008CA
:10008000FB010008FB010008FB010008FB01000860
:10009000FB010008FB010008FB010008FB01000850
:1000A000FB010008FB010008FB010008FB01000840
:1000B000FB010008FB010008FB010008FB01000830
:1000C000FB010008FB010008FB010008994500083E
:1000D000A5450008FB010008DD510008FB010008F0
:1000E000FB010008FB010008FB010008FB01000800
:1000F000FB010008FB010008FB010008FB010008F0
:10010000FB010008FB010008FB010008FB010008DF
:10011000FB010008FB010008FB010008FB010008CF
:10012000FB0100089D110008FB010008A91100084F
:10013000FB010008FB010008FB010008FB010008AF
:10014000FB010008FB010008FB010008A9440008AE
:10015000FB010008FB010008FB010008FB0100088F
:10016000FB010008FB010008FB010008FB0100087F
:10017000FB010008FB010008FB0100080000000073
:10018000FB010008FB010008FB010008FB0100085F
:10019000B1450008FB010008FB010008FB01000855
:1001A000FB010008FB010008FB010008FB0100083F
:1001B000FB010008FB010008FB010008FB0100082F
:1001C000FB010008FB010008DFF810D000F08CFDF7
:1001D0000048004775810008AFF300809886002032
:1001E0000648804706480047FEE7FEE7FEE7FEE7D1
:1001F000FEE7FEE7FEE7FEE7FEE7FEE7354B000819
:10020000C901000810B5044604E00B7800F8013B72
:1002100003B1491C521EF8D2204610BD30B5054628
:100220000020034600E05B1C934205D2EC5CC85CF6
:10023000201A01D1002CF6D130BD00000FB400B55A
:100240008DB010A909900B9000914FF0FF300A90EB
:1002500000200C9005480690054807906A4609A8BA
:100260000F9900F049FC0DB05DF814FB150B000868
:10027000330B00082DE9FF4F087883B09946FF281B
:1002800005D0491C2D2804D00024002008E00020BF
:100290000BE00124F9E700EB800003EB4000491C70
:1002A0000B78FF2BF7D104B140420023029314785E
:1002B00019461D462D2C01D02B2C04D1521C2D2C5F
:1002C00013D000240294AA461478FF2C0FD00A25DC
:1002D000A3FB057801FB05814FF0000C03FB0C111B
:1002E000521CE3194AEB0101EEE70124EAE78144DD
:1002F00053EA010002D019F5C87F06DA03980021FD
:10030000C0E9001107B0BDE8F08F0025AE4E2F46C2
:10031000DFF8B882184600F0C2FCCDE90001B9F15F
:10032000000002DAC9F1000400E004460023A74AF5
:100330001AEB030B42EB045A12E0E00707D02A46FF
:1003400033463846414600F0ECF9074688462A46CF
:1003500033461046194600F0E4F905460E4664108F
:10036000002CEAD1DDE90001B9F1000F5A465346ED
:1003700006DA00F048FA3A46434600F044FA05E04F
:1003800000F0CFF93A46434600F0CBF9029A0AB1A1
:1003900081F00041039AC2E90001B3E72DE9FF4F64
:1003A0001F468DB0D7E901464FF0FF382E20454655
:1003B0004FF000090B90B9696D1C0E988847396A97
:1003C000824688470028F6D1BAF1FF3F0AD024F4CC
:1003D000D064002E11DDBAF12B0F08D0BAF12D0F29
:1003E0000BD102E0404611B08DE744F48064B96956
:1003F0006D1C0E9888478246761E6946600501D5B9
:100400002D2000E02B208DF8000001F1010B0DF1F3
:10041000200809E0B9696D1C0E98884782460F983C
:1004200044F40074761E0560002E02DDBAF1300F30
:10043000F0D00B998A453ED144F0800406E00F9934
:10044000681CA9F1010944F400740860B9696D1CC5
:10045000761E0E98884782463028F0D02BE00B9904
:100460008A4505D1200603D444F08004761E18E0A6
:10047000504606F0C9FE08B30DF11301761E44F490
:1004800000748B4508D2AAF130000BF8010B20064E
:1004900007D5A9F1010003E0200602D409F101000B
:1004A0008146A00502D50F99681C0860B9696D1CCA
:1004B0000E9888478246002ED1DC53E0002E51DD95
:1004C000BAF1650F02D0BAF1450F4BD1A00549D55D
:1004D000B9696D1C24F44074761E0E9888478246D4
:1004E000002E0CDD2B2804D0BAF12D0F07D144F4D7
:1004F0008074B9696D1C0E9888478246761EE005A7
:1005000001D52D2100E02B2108F8011BCDF82C800E
:1005100021E00DF12901761E44F4007488450CD2C7
:10052000AAF1300010F0FF0088F8000002D10B990A
:10053000884509D908F1010806E0E00501D52448FD
:1005400001E042F20F708146B9696D1C0E98884730
:1005500082460F980560002E04DD504606F054FEDA
:100560000028D6D1F9690E988847FF208BF8000043
:1005700088F800000020069007904B466A4608A9BC
:1005800006A8FFF777FEA00502D46FF001002AE766
:1005900014F0240F0AD0E00714D1DDE90612386800
:1005A000031D3B600068C0E900120BE0DDE90601B5
:1005B00000F008FA0146E00704D13868021D3A60ED
:1005C0000068016028460EE7000014400000F03F7C
:1005D000F1D8FFFF2DE9FE4F804681EA0300C00FEE
:1005E0000C46009021F0004123F00045B8EB0200DA
:1005F000A94105D24046214690461C460B4602467C
:1006000023F00040104347D0270DC7F30A00C3F37F
:100610000A510290401A019040286BDAC3F313008C
:1006200040F4801B0098924620B10023D2EB030ACD
:1006300063EB0B0B01985946C0F14002504600F0A5
:1006400024FA06460D4650465946019A00F03CFAF7
:1006500010EB08006141002487EA115284EAE77335
:100660001A4340D0009A62B3019A012A4FEA075216
:1006700015DC001B61EB02014FF0004202EA075259
:10068000CDE90042001C41F5801132462B4600F0B6
:10069000A7FA03B0BDE8F08F40462146F9E7001BFA
:1006A00061EB0201001C41F5801300185B4120182A
:1006B000A2F5001747EB030140EAD570B6196D416A
:1006C00011E06D084FEA360645EAC0754FEA075259
:1006D000001B61EB0201001C41F5801149084FEA43
:1006E00030000019514132462B4603B0BDE8F04FAF
:1006F00000F067BA0098012240000023D0EB02020C
:1007000063EBE073009821464FEAE074B8EB000019
:1007100061EB0401E9E783F000435BE781F000410E
:1007200058E72DE9FE4F81EA030404F0004421F06C
:10073000004100944FF0000B23F0004350EA010405
:100740005ED052EA03045BD0C3F30A54C1F30A55E6
:100750002C44A4F2F3340194A0FB0254C1F313011E
:1007600041F48011C3F3130343F4801301FB0244EB
:1007700000FB034E840A970A44EA815447EA8357F0
:10078000A4FB076802958D0A05FB07854FEA932CA9
:1007900004FB0C542705029D4FEA065847EA16371A
:1007A000B5EB08056EEB070C870E920E47EA811732
:1007B00042EA8312A7FB0201B6EB0B0164EB0004D3
:1007C0002B0D43EA0C335E1844EB1C50DA465146BD
:1007D000E7FB0201C5F313044FEA0B3343EA14535A
:1007E0004FEA0432019C43EA0603A4F10C0402948C
:1007F000009CCDE900B400F0F3F903B0BDE8F08F40
:1008000000200146F9E72DE9F04D81EA030404F0E8
:10081000004B21F0004514464FF0000A23F0004140
:1008200050EA050220D054EA01021DD0C5F30A5750
:100830000246C5F31303C1F31300C1F30A5640F493
:10084000801543F48013A7EB0608101BD64608F268
:10085000FD3873EB050002D308F1010801E092189E
:100860005B41B8F1000F03DA00200146BDE8F08DCE
:1008700000204FF48011064684460EE0171B73EBF0
:10088000050705D3121B63EB050306434CEA010C75
:1008900049084FEA300092185B4150EA0107EDD158
:1008A00052EA030012D082EA040083EA05010843F9
:1008B00005D0101BAB4106D20122002306E0002226
:1008C0004FF0004302E06FF0010253101AEB0600F4
:1008D0004CEB085110EB0A0041EB0B01BDE8F04D69
:1008E00000F06FB90EB540F2334102910021CDE91D
:1008F00000110A460B4600F073F903B000BD70B555
:10090000C1F30A5201F000450024C1F3130140F283
:10091000FF3341F480119A4201DA002070BD40F2A9
:1009200033439A42A2F2334203DC524200F0BCF855
:1009300000E090402C43F1D0404270BD00F00042F6
:1009400030F000400AD0C10D01F56071C0F316000F
:1009500042EA0151C2084007114370470020014696
:100960007047000030B5041E71F1000404DB4FF045
:100970000044404264EB0101141E73F1000405DBE6
:100980001C464FF00043524263EB04038B4208BF06
:10099000824230BD30B5041E71F1000404DB4FF01B
:1009A0000044404264EB0101141E73F1000405DBB6
:1009B0001C464FF00043524263EB0403994208BFC8
:1009C000904230BD01F0004330B421F0004150EAC4
:1009D000010206D00A0DA2F56072C1F31301002ACC
:1009E00002DC30BC00207047440F44EAC104C1005F
:1009F000E01830BC00EBC25000F0ACB830B50B468C
:100A0000014600202022012409E021FA02F59D423E
:100A100005D303FA02F5491B04FA02F52844151E12
:100A2000A2F10102F1DC30BD2DE9F05F05460020A6
:100A300092469B4688460646814640241BE028464F
:100A400041464746224600F02FF853465A46C01A00
:100A5000914110D311461846224600F016F82D1A7F
:100A600067EB01084F4622460120002100F00DF8F7
:100A700017EB00094E41201EA4F10104DFDC4846BB
:100A800031462A464346BDE8F09F202A04DB203A3F
:100A900000FA02F1002070479140C2F1200320FAD1
:100AA00003F3194390407047202A04DB203A21FACF
:100AB00002F00021704721FA02F3D040C2F1200277
:100AC0009140084319467047202A06DBCB17203A8D
:100AD00041FA02F043EAE07306E041FA02F3D04043
:100AE000C2F1200291400843194670470268114440
:100AF0001378016018467047D16004495161044978
:100B0000116200211161114600F006B9ED0A0008DA
:100B10000D0D0008426842B1016811F8013B23B194
:100B2000521EC0E90012184670470121C160881E9C
:100B3000704742685AB1C368016843B983688B4201
:100B400005D0491E521CC0E90012002070474FF02A
:100B5000FF3070470029A8BF7047401C490008BFFC
:100B600020F00100704710B4B0FA80FC00FA0CF0DD
:100B700050EA010404BF10BC704749B1CCF1200415
:100B800021FA04F411FA0CF118BF012121430843A2
:100B9000A3EB0C01CB1D4FEA00614FEA102042BFCE
:100BA000002010BC704700EBC35010440029A4BFC4
:100BB00010BC7047401C490008BF20F0010010BC69
:100BC000704710B5141E73F1000408DA401C41F19F
:100BD000000192185B411A4301D120F0010010BDC1
:100BE0002DE9F04D92469B4611B1B1FA81F202E037
:100BF000B0FA80F220329046FFF747FF04460F46D6
:100C000040EA0A0041EA0B0153465A46084313D012
:100C1000114653EA010019D0C8F140025046FFF7CF
:100C200043FF05460E46504659464246FFF72DFF04
:100C3000084305D0012004E020463946BDE8F08D88
:100C40000020054346EAE0762C4337430A986305C3
:100C5000E40AA0EB08000022FD0A44EA47540A30E7
:100C600002D500200146E9E7010510196941DDE9D7
:100C7000084500196941BDE8F04DA2E70EB5C10F66
:100C800080EAE0700844CA07002140F233438DE84F
:100C90000E000A460B46FFF7A3FF03B000BD0EB5DA
:100CA00040F2334202920022CDE900221346FFF7C0
:100CB00097FF03B000BDC1F30A52C1F3130140F224
:100CC000FF3341F480119A4202DA00200146704756
:100CD00040F233439A42A2F2334202DC5242FFF71F
:100CE000E3BEFFF7D2BE0000064C074D06E0E06809
:100CF00040F0010394E8070098471034AC42F6D363
:100D0000FFF766FAD09C0008F09C0008C0B24FF4D0
:100D1000F05100F099B900002DE9F34F8BB04FF07E
:100D2000000801F10C000C464FF0010B46460DF196
:100D3000080A01906269012101989047051E2DD093
:100D4000252D2CD0216A8847C0B162690121019804
:100D50009047216A88470028F7D1411E62690198AF
:100D6000904700E0761CA1690B988847216A884764
:100D70000028F7D1E1690B988847DBE7A1690B9858
:100D800088470746A84201D1761CD3E7E1690B9852
:100D900088477F1C02D1B8F1000F6FD047E10027D0
:100DA00062693D463946019890472A2804D1626914
:100DB0000121019890470125DFF88892626901219D
:100DC00001989047A0F130010A290AD24F45E5DC8D
:100DD00007EB870100EB4107303FDFD445F01005FA
:100DE000ECE7E90601D46FF000476C280AD04C28E4
:100DF00014D0682815D06A280DD074281CD07A2801
:100E00001AD01DE062690121019890476C2802D038
:100E100045F0040514E045F002050DE045F020051D
:100E20000AE06269012101989047682802D045F0E4
:100E3000080505E045F400656269012101989047C5
:100E4000C4E9015765283DD019DC58287AD00CDC5C
:100E5000452837D004DC252826D0412831D131E07F
:100E600046282FD047282CD12CE05B2877D061284A
:100E700028D063287CD0642823D15AE0D1E06F28A1
:100E800048D008DC66281DD067281BD0692821D0EF
:100E90006E2816D127E0702845D0732868D07528B1
:100EA00047D078280DD14DE0A1690B9888470546B9
:100EB00025283FF469AFE1690B9888476D1C3FF422
:100EC0006AAFB4E023466A466FF001000B99FFF762
:100ED00065FA9FE045F040006060A80723464FF0A8
:100EE000000236D43EE0E8077FF447AF2068011DDA
:100EF00021600068290501D506701BE7290701D587
:100F0000068017E7A90703D5F117C0E9006111E7CB
:100F100006600FE745F040006060A80723464FF0E9
:100F2000080216D41EE040F60E0125EA01006060BA
:100F300016E045F040006060A80723464FF00A0223
:100F400007D40FE045F040006060A80708D52346AD
:100F500010226FF001000B99AFF300805AE007E018
:100F6000234610226FF001000B99AFF3008051E08F
:100F70004FF000094F464B46632802D05B2807D04C
:100F800041E02079C00601D40120A06001273AE0A9
:100F900062690121019890475E2805D14FF001094F
:100FA0006269494601989047216939B900210A468A
:100FB000534643F82120491C0829FADBB0B32169C4
:100FC00069B9C11700EBD16253110AEB830122F01A
:100FD0001F02821A01200B68904003430B60626974
:100FE0000121019890475D28E8D1B9F1000F09D09F
:100FF0000020514651F82020D24341F82020401CC7
:101000000828F7DB02AB224600976FF001000B992E
:10101000AFF3008000280CDA401C08D1BBF1000FB0
:1010200005D04FF0FF300DB0BDE8F08FFFE7404630
:10103000F9E7E90701D108F1010806444FF0000B78
:1010400078E60000CCCCCC0C7F2801D9002208E047
:10105000064A02EB5002C007127800D1120902F0D2
:101060000F0201209040084070470000909C00084B
:1010700070B58C1810F8015B15F0070301D110F85A
:10108000013B2A1106D110F8012B03E010F8016B87
:1010900001F8016B5B1EF9D12B0705D40023521E0A
:1010A0000DD401F8013BFAE710F8013BCB1A921C72
:1010B00003E013F8015B01F8015B521EF9D5A14270
:1010C000D8D3002070BDFEE7002070470020704795
:1010D00005490022054810B504F071F90449034898
:1010E00004F067F9002010BD7C1E0020580E00207F
:1010F0007C16002010B50A680C4601460748FFF729
:1011000081F8064A002021685054054804F030F95F
:10111000044902200870002010BD00004002002099
:10112000580E0020440000200A46094910B5D1F8A5
:101130001812D1F8141209B1012010BD014604485B
:1011400004F03DF9BDE81040014804F07DB900000D
:10115000580E00200C48DFED0D1A90ED011AD0ED6D
:10116000000AB8EE412AB8EE411AF8EE602A00EE05
:10117000212A00EE211AB8EE600A22EE222A71EE30
:10118000000A82EE200A70470400002000007A4422
:10119000014800F071B90000280D0020014800F05E
:1011A0006BB90000880D0020014800F065B900000F
:1011B000C80C002001680A4BCAB2103AA3FB0232E5
:1011C0001209084B9B5CC365032A04D96FF309011C
:1011D000091D816502E06FF309018165806D70472B
:1011E000ABAAAAAA2C9C0008014600208A6A8B6937
:1011F000002B0FD0B3F5005F1DD08AB3012A30D089
:10120000022A2ED0032A04D1C96A11F0807F00D0AF
:10121000012070471AB1012A07D0022AF9D1C96A00
:1012200011F0807FF5D001207047C96AB1F1C07F0D
:10123000FAD1012070475AB1012A0BD0022A07D0F7
:10124000032AF7D1C96AB1F1C07FF3D101207047F9
:1012500001207047C96A11F0807FFAD001207047E1
:10126000FFE70120704770470022002905D00129BF
:101270001CD002291DD04FF440720F490B6823F493
:1012800040730B600B681A430A600A6822F0F80288
:101290000A600A68022343EAC00010430860086835
:1012A00040F480300860BFF34F8F70474FF4807276
:1012B000E3E74FF40072E0E7103C024009490A6896
:1012C00022F440720A600A6842F004020A600A6866
:1012D0004FF4803343EA002010430860BFF34F8F80
:1012E00070470000103C0240074A136823F4407323
:1012F000136013681360136843F0010313600170F7
:10130000BFF34F8F70470000103C02400B49D1F8EB
:1013100000C02CF4407CC1F800C0D1F800C04CF4EF
:10132000407CC1F800C0D1F800C04CF0010CC1F8FD
:1013300000C002604360BFF34F8F7047103C024013
:10134000084A136823F440731360136843F48073EE
:101350001360136843F0010313600180BFF34F8FE4
:1013600070470000103C0240084A136823F44073A1
:101370001360136843F400731360136843F00103B0
:1013800013600160BFF34F8F70470000103C0240B4
:101390001649086810F0020F154803D0826942F020
:1013A000200282610A6812F0100F03D0826942F0B5
:1013B000100282610A6812F0200F03D0826942F0A5
:1013C000080282610A6812F0400F03D0826942F07D
:1013D000040282610A6812F0800F03D0826942F031
:1013E00002028261F2200860704700000C3C02405B
:1013F0007C26002070B5044614490020886100F066
:1014000051FC0646124D286810F4803F0ED0B4F10E
:10141000FF3F07D024B100F045FC801BA04201D95A
:10142000032070BD286810F4803FF0D1286810F0C8
:10143000F20F03D0FFF7ACFF012070BD286810F059
:10144000010F01D001202860002070BD7C26002003
:101450000C3C024090F83510022903D080214165F0
:1014600001207047052180F835100068016821F0DF
:1014700001010160002070472DE9F84304464FF058
:101480000008CDF800804FF4165175480068B0FB95
:10149000F1F7A56D2E68082194F85C0001FA00F0C0
:1014A000304211D02068026812F0040F0CD002689C
:1014B00022F00402026094F85C0001FA00F0A860D7
:1014C000606D40F00100606594F85C1065488840EC
:1014D000304209D02168496911F0800F04D0A8601A
:1014E000606D40F00200606594F85C105E488840D2
:1014F000304209D02168096811F0020F04D0A860B9
:10150000606D40F00400606594F85C101020884025
:10151000304224D02168096811F0080F1FD0A8605C
:101520002068016811F4802F0DD0006810F4002F9E
:1015300004D0A16C99B12046884710E0216C71B1AC
:10154000204688470BE0016811F4807F03D10168D1
:1015500021F008010160216C09B12046884794F808
:101560005C102020884030424FF0010651D02168A5
:10157000096811F0100F4CD0A86094F835000528C8
:101580000DD02068016811F4802F32D0006810F46B
:10159000002F29D0E16B59B32046884739E02068F5
:1015A000016821F0160101602068416921F0800185
:1015B0004161206C08B9A06C20B12068016821F05D
:1015C0000801016094F85C003F2101FA00F0A86076
:1015D00084F8348084F83560216D00293ED001B054
:1015E0002046BDE8F0430847616C09B120468847B2
:1015F0000FE0016811F4807F07D1016821F010012C
:10160000016084F8348084F83560E16B09B12046CC
:101610008847606D002821D0606D10F0010F15D053
:10162000052084F835002068016821F0010101607F
:101630000098401C0090B84204D82068006810F060
:10164000010FF5D184F8348084F83560E16C00290D
:1016500004D001B02046BDE8F0430847BDE8F88358
:101660000801002001008000040080002DE9F04105
:10167000044600F017FB0546DCB1002684F8346010
:10168000022084F835002068016821F00101016022
:101690002068006810F0010F13D000F003FB401B1E
:1016A000052809D920206065032084F83500BDE8AD
:1016B000F0810120BDE8F0812068006810F0010F82
:1016C000EBD121680868234A1040A3686268D4F807
:1016D00010C01A43E36843EA0C031A4363691A43D0
:1016E000A3691A43E3691A43236A1A431043626ADF
:1016F000042A03D1236BE26A1A431043086020686E
:10170000406920F00701606A40EA010501270428CA
:101710000ED1A06A0543E06A50B12046FFF764FD90
:1017200030B14020606584F835700120BDE8F0815B
:10173000206845612046FFF73DFD94F85C103F228C
:1017400002FA01F18160666584F835700020BDE819
:10175000F08100003F8010F031B500F0A3FA04469C
:1017600000F0A0FA0099001B8842F9D338BD0000B0
:101770002DE9F04104460F46DFF8848098F8140004
:10178000012808D0012088F814004CF25030FFF7EF
:1017900031FE18B12FE00220BDE8F0814FF0FF319B
:1017A00039602168174E012913D06568A168294462
:1017B000A94220D9217B2846FFF756FD4CF2503034
:1017C000FFF718FE316821F07A01316068B13D60A1
:1017D00011E0207BFFF772FD4CF25030FFF70AFE5C
:1017E000316821F00401316005E06D1C6268A16878
:1017F0001144A942DED8002188F81410BDE8F08118
:101800007C260020103C02400348016841F0004162
:101810000160002070470000103C02402DE9F041BB
:101820000646884614461D461B4F387D012807D0C2
:10183000012038754CF25030FFF7DCFD18B127E07D
:101840000220BDE8F08136B1012E09D0022E0CD065
:10185000032E14D10EE04046E1B2FFF745FD0EE045
:10186000A1B24046FFF76CFD09E021464046FFF774
:101870007BFD04E022462B464046FFF747FD4CF235
:101880005030FFF7B7FD05490A6822F001020A60EF
:1018900000213975BDE8F0817C260020103C024013
:1018A0000648006810F0004F06D006480449016061
:1018B000054901600020704701207047103C02403C
:1018C00023016745043C0240AB89EFCD2DE9F04F81
:1018D0000022DFF878914FF0010E4FF00F0809F168
:1018E000040A0AF1040B0EFA02F401EA0403A3420B
:1018F0007ED1056856004FF0030C0CFA06FC25EA71
:101900000C050560D50800EB85052E6A5707FF0E0C
:1019100008FA07F7BE432E62856825EA0C05856044
:10192000456825EA04044460C46824EA0C0CC0F845
:101930000CC022F0030C0CF1804404F59834D4F868
:1019400008C895072E0F08FA06F505EA0C07A0F15E
:10195000804CBCF5003C5AD0A0F1804CBCF5013C59
:1019600058D0A0F1804CBCF5023C56D0A0F1804C80
:10197000BCF5033C54D0A0F1804CBCF5043C52D0E3
:10198000A0F1804CBCF5053C50D0A0F1804CBCF5DA
:10199000063C4ED0A0F1804CBCF5073C4CD0A0F1E9
:1019A000804CBCF5083C4AD0A0F1804CBCF5093C09
:1019B00048D04FF00A0C0CFA06FCBC4521D1D4F8F3
:1019C00008C82CEA050CC4F808C8D9F800C02CEAED
:1019D000030CC9F800C0DAF800C02CEA030CCAF8FE
:1019E00000C0DBF800C02CEA030CCBF800C000E01C
:1019F00007E0DFF85CC0DCF8004024EA0303CCF821
:101A00000030521C102AFFF46EAFBDE8F08F4FF08B
:101A1000000CD0E74FF0010CCDE74FF0020CCAE705
:101A20004FF0030CC7E74FF0040CC4E74FF0050C70
:101A3000C1E74FF0060CBEE74FF0070CBBE74FF0D5
:101A4000080CB8E74FF0090CB5E70000003C014076
:101A50000C3C01402DE9F84F0022DFF82C92DFF812
:101A600024820F2709F1040A4FF0010E0EFA02F545
:101A70000B682B40AB427DD1D1F804C0BCF1020F02
:101A800002D0BCF1120F14D14FEAD20C00EB8C043F
:101A9000266A4FEA427C4FEADC6C07FA0CFB26EA26
:101AA0000B06D1F810B00BFA0CFC4CEA060CC4F88B
:101AB00020C0066803244FEA420C04FA0CF4A64343
:101AC00091F804B00BF0030B0BFA0CFB4BEA060683
:101AD00006604E68012E05D0022E03D0112E01D0D3
:101AE000122E11D18668A643D1F80CB00BFA0CFB6C
:101AF0004BEA06068660466826EA05050E79C6F3B7
:101B00000016964035434560C56825EA04048D6893
:101B100005FA0CFC4CEA040CC0F80CC0D1F804C067
:101B20001CF0805F26D0D8F800C04CF4804CC8F878
:101B300000C0D8F800C00CF4804CCDF800C022F0F2
:101B4000030C0CF1804505F59835D5F808C89407C5
:101B5000240F07FA04F62CEA0606A0F1804CBCF527
:101B6000003C70D0A0F1804CBCF5013C6ED0A0F1DF
:101B7000804C00E05FE0BCF5023C6AD0A0F1804CF4
:101B8000BCF5033C68D0A0F1804CBCF5043C66D0A9
:101B9000A0F1804CBCF5053C64D0A0F1804CBCF5B4
:101BA000063C62D0A0F1804CBCF5073C60D0A0F1AF
:101BB000804CBCF5083C5ED0A0F1804CBCF5093CE3
:101BC0005CD04FF00A0C0CFA04FC4CEA060CC5F889
:101BD00008C8D9F800C02CEA030C4C6814F4803F04
:101BE00001D04CEA030CC9F800C0DAF800C02CEAB6
:101BF000030C4C6814F4003F01D04CEA030CCAF803
:101C000000C0224CD4F800C02CEA030C4D6815F437
:101C1000801F01D04CEA030CC4F800C01C4CD4F85F
:101C200000C02CEA030C4D6815F4001F01D04CEAEB
:101C3000030CC4F800C0521C102AFFF417AFBDE813
:101C4000F88F00E002E04FF0000CBCE74FF0010C11
:101C5000B9E74FF0020CB6E74FF0030CB3E74FF0D3
:101C6000040CB0E74FF0050CADE74FF0060CAAE707
:101C70004FF0070CA7E74FF0080CA4E74FF0090C52
:101C8000A1E7000044380240003C0140083C01400C
:101C90000C3C0140002A01D0816170470904816138
:101CA00070470000014800687047000004010020F0
:101CB00002480168491C01607047000004010020CF
:101CC00010B5032000F096F8002000F005F800F0B1
:101CD00017F8002010BD000010B5044607484FF467
:101CE0007A720068B0FBF2F001F086FF0022214614
:101CF000501E00F049F8002010BD0000080100202F
:101D0000032010B500F076F800226FF00B001146AA
:101D100000F03AF800226FF00A00114600F034F8A3
:101D200000226FF00900114600F02EF80022501F2B
:101D3000114600F029F80022101F114600F024F887
:101D40000022901E114600F01FF80022BDE810404E
:101D5000501E114600F018B8012200F01F0102FACF
:101D600001F14009800000F1E020C0F880117047C7
:101D7000012200F01F0102FA01F14009800000F188
:101D8000E020C0F8001170474DF8044D184B1B6857
:101D9000C3F30223C3F1070CBCF1040F01D94FF0C8
:101DA000040C1C1D072C01D2002300E0DB1E0124C3
:101DB00004FA0CFCACF1010C0CEA0101994004FAA4
:101DC00003F35B1E1A401143002809DA00F00F00EC
:101DD00000F1E020090180F8141D5DF8044B704704
:101DE00000F1E020090180F800145DF8044B704711
:101DF0000CED00E000F00700064A11684FF6FF0303
:101E0000194041EA002040F0FD7040F08060106011
:101E1000704700000CED00E001680122C0F8F423D7
:101E2000002280F8EC23886940F000608861486DEA
:101E300040F0030040F080504865002070470000EB
:101E400070B5164D0446A1B1012911D12068D0F812
:101E5000001E41F00101C0F8001ED4F8FC0303F09D
:101E6000D2FE206A002803D0286840F006002860CF
:101E700070BD206A28B102F001FE286820F006003B
:101E800028602068D0F8001E21F00101C0F8001E73
:101E9000D4F8FC03BDE8704003F041BE10ED00E053
:101EA000006841620020704730B400230068D0F819
:101EB00024C0002918D0846A0CEB144C491E002958
:101EC0004FF4827408DD04EB830545590CEB154C87
:101ED0005B1CDBB28B42F6DB04EB81014CEA024275
:101EE000425030BC002070474CEA02418162F8E762
:101EF000D0F8FC0303F06DBDC1EBC10200EB820220
:101F0000D0F8FC03526C03F0CEBCC1EBC10200EB75
:101F10008202D0F8FC03D2F8042203F021BDD0F8ED
:101F2000FC0303F058BD10B504460A4602F07F00DA
:101F300012F0800FC0EBC00104EB810101D03831F9
:101F400001E001F5FC710870C2F3C010487094F80C
:101F5000B803012809D0012084F8B803206804F0F0
:101F6000DBF8002084F8B80310BD022010BD70B566
:101F70000446084610F0800F00F07F0205D0C2EB47
:101F8000C20104EB8101383105E0C0EBC00104EB74
:101F9000810101F5FC7100258D700A70C0F3C0103D
:101FA000487094F8B803012809D0012084F8B803D8
:101FB000206804F09BFA84F8B853002070BD02201A
:101FC00070BD01F00F01C1EBC10100EB8100B0F861
:101FD000100280B2704770B504468C460CF07F004A
:101FE0001CF0800FC0EBC00104EB810101D038313F
:101FF00001E001F5FC710870CCF3C01C81F801C050
:102000008A60CB70BCF1000F00D0C8800025022B85
:1020100000D10D7194F8B803012809D0012084F88B
:10202000B803206803F0BCFF284684F8B85370BD9D
:10203000022070BD10B50C4604F07F0CCCEBCC0137
:1020400000EB810101F5FC71CA604B6100238B61DB
:102050004B7081F800C00369012B00D10A6114F0B4
:102060007F0F05D0027C006804F0A4FA002010BDA8
:10207000027C006804F06CF9F8E770B504460D4680
:1020800015F0800F05F07F0005D0C0EBC00104EB18
:102090008101383105E0C5EBC50104EB810101F593
:1020A000FC7101228A700870C5F3C010487094F862
:1020B000B803012808D084F8B823206804F048FA4F
:1020C00015F07F0F02D007E0022070BD217C04F5DF
:1020D0006F72206804F0EBF9002084F8B80370BD3B
:1020E00010B50C4604F07F0CCCEBCC0100EB810169
:1020F0003831CA604B6100238B6101234B7081F83A
:1021000000C00369012B00D10A6114F07F0F05D0D4
:10211000027C006804F04EFA002010BD027C0068CA
:1021200004F016F9F8E700002DE9F05F0446256891
:102130000026284604F0BAFB00287DD1206804F070
:10214000DEFB002878D0206804F0D9FB10F0020FE5
:1021500002D0216802204861206804F0D0FB10F40E
:10216000002F4FF0010A4FF0080B73D0206804F0E5
:10217000A8FB074638006DD04FF4004917F0010F57
:1021800064D02068F1B204F0B2FB804618F0010F71
:1021900033D005EB4611C1F808AB2069012806D100
:1021A000D5F8080B10F4004F01D0C1F8089B206946
:1021B000012811D1C6EBC600D1F8101B04EB80003A
:1021C000D0F80022C1F31201511AC0F81012D0F851
:1021D00004121144C0F804122046F1B2FFF795FE34
:1021E0002069012809D146B9D4F80C0228B9206821
:1021F000012104F56F7204F05AF918F0080F12D09B
:102200002069012808D1D5F8080B10F4004F03D03D
:1022100005EB4610C0F8089B204600F061FB05EB7B
:102220004610C0F808BB18F0100F04D005EB46119B
:102230001020C1F8080B01E03BE20BE018F0200F82
:1022400004D005EB46112020C1F8080B761C7F084E
:10225000002F93D1206804F052FB10F4802F4FF030
:10226000400964D0206804F025FB80460026B8F1C0
:10227000000F5CD018F0010F53D02068F1B204F0C9
:1022800027FB074617F0010F26D00AFA06F0D5F80B
:10229000341821EA0000C5F8340805EB4610C0F8F0
:1022A00008A92069012807D1C6EBC60004EB80000D
:1022B000026C416C114441642046F1B2FFF71CFEF0
:1022C0002069012808D13EB9E06C28B920680121B5
:1022D00004F56F7204F0EBF817F0080F03D005EB6C
:1022E0004610C0F808B917F0100F04D005EB4611DE
:1022F0001020C1F8080917F0400F03D005EB461075
:10230000C0F8089917F0020F04D005EB461102201F
:10231000C1F8080917F0800F03D03146204602F0BB
:10232000C9F8761C4FEA5808B8F1000FA2D120680E
:1023300004F0E5FA10F0004F10D0D5F8040820F0B2
:102340000100C5F8040894F8EC03012861D0204688
:1023500000F0ACFA21684FF000404861206804F0BA
:10236000CEFA10F4006F0BD0D5F8080810F0010F6A
:1023700002D0204600F0D0FA21684FF40060486196
:10238000206804F0BCFA10F0006F09D021684FF00B
:102390000060486194F8EC03D0B3204600F0BCFA2A
:1023A000206804F0ACFA10F4805F63D0D5F804081C
:1023B00020F00100C5F804082068102104F044FA58
:1023C0000020616800290AD9FF2205EB4011C1F8FD
:1023D0000829C1F8082B401C61688142F5D84FF0EC
:1023E000FF30C5F81808D5F81C0840F00110C5F8F2
:1023F0001C08206B10B3D5F8840840F00B00C5F81A
:102400008408D5F8440840F00B00C5F8440821E0E2
:1024100007E0002084F8EC0300212046FFF710FDC0
:1024200098E784F8ECA32068406DC0F38300C4F8FB
:10243000F00301212046FFF703FDB1E7D5F81408AA
:1024400040F02B00C5F81408D5F8100840F00B0038
:10245000C5F81008D5F8000820F4FE60C5F800089B
:10246000217C04F56F72206804F021F821684FF494
:1024700080504861206804F042FA10F4005F7AD07E
:10248000206803F0D7FD2068C16821F47051C16055
:10249000206804F0EDF980B10320E060C4F81490E6
:1024A00000F0C6FD8449854A0144914210D220685B
:1024B000C16841F47051C1606EE00020E0604FF4EB
:1024C000007060612068C16841F41051C16063E030
:1024D0007B497C4A0144914205D22068C16841F49D
:1024E0006051C16058E0784AA0F57401A1F510511F
:1024F000914205D22068C16841F45051C1604BE05F
:10250000724AA0F18371A1F5E741914205D220689A
:10251000C16841F44051C1603EE06D496D4A0144DB
:10252000914205D22068C16841F43051C16033E066
:1025300069496A4A0144914205D22068C16841F460
:102540002051C16028E06649664A0144914205D2A3
:102550002068C16841F41051C1601DE0624AA0F1D9
:10256000B771A1F55851914206D22068C16841F473
:102570000051C16010E016E05C4908445C498842A3
:1025800005D22068C16841F4E051C16004E02068D0
:10259000C16841F4C051C160204600F077F921685C
:1025A0004FF400504861206804F0A9F910F0100FB2
:1025B00038D02068816921F010018161D5F8208030
:1025C00008F00F00C0EBC00004EB800000F5FC77C2
:1025D000C8F34340022802D0062813D01DE047F676
:1025E000F07018EA000F18D0C8F30A12F968904684
:1025F000284604F088F9F8684044F860B869404417
:10260000B8610AE00822284604F56F7104F07BF9EE
:10261000B869C8F30A110844B8612068816941F0BB
:1026200010018161206804F06AF910F0080F05D0EC
:10263000204600F03FF92068C0F814B0206804F08C
:102640005EF910F4801F07D02046F1B200F052F876
:1026500021684FF480104861206804F050F910F4AC
:10266000001F07D02046F1B200F048F821684FF46F
:1026700000104861206804F042F910F0804F06D045
:102680002046FFF735FC21684FF080404861206804
:1026900004F035F910F0040F0BD02068456815F0F0
:1026A000040F02D02046FFF73AFC20684168294316
:1026B0004160BDE8F09F0000405327FF00350C004B
:1026C000401E1BFF40420F00804F120020D6130017
:1026D00060B6E5FE60E3160000D3CEFE40771B0037
:1026E000C05BB3FEC091210020753800E05459FE54
:1026F000E09C4100D0F8FC0303F0CAB9D0F8FC0319
:1027000003F0C8B92DE9F0418AB004460025002C39
:102710006DD0032084F8B903204600F077F82068D4
:1027200003F010FE04F11000D4F82C80A76A666A4A
:1027300090E80F108DE80F10CDF81C8006970596D5
:10274000616B206B0991089094E80F0003F08CFCFA
:102750002068002104F0E9F801260022C5EBC5003D
:1027600004EB800080F8396080F83850C58780F825
:102770003B2002644264C2646D1C0F2DEED3002026
:102780004FF48273C0EBC00104EB810181F8F921A1
:1027900081F8F801C88781F8FB21C1F80022C1F84F
:1027A0000422C1F80C2203EB800C216841F80C20B4
:1027B000401C0F28E6D304F11000D4F82C80A76A3F
:1027C000656A90E80F108DE80F10CDF81C80069711
:1027D0000595616B206B0991089094E80F0003F058
:1027E000F3FC84F8B963606A012804D006E00AB0FB
:1027F0000120BDE8F0812046FFF70EFB206803F0C2
:10280000D6FC0AB00020BDE8F081000030B50068B9
:1028100087B0B0F1A04F33D100241A4D4FF40070AF
:1028200069460294CDE900042846FFF713F9022017
:102830004FF4C051CDE9001003206946CDE90240B4
:102840000A2004902846FFF705F90F48016841F077
:1028500080010160006800F0800005900A48103097
:10286000016841F48041016000680022114600F4D3
:10287000804005904320FFF787FA4320FFF778FA5E
:1028800007B030BD000002403438024010B50446A5
:10289000C068012100B90021D4F8FC0303F051F90C
:1028A000D4F8FC03BDE8104003F019B9D0F8FC03DC
:1028B00003F035B9D0F8FC0303F037B910B504467E
:1028C00094F8B803012809D0012084F8B8032068DF
:1028D00004F042F8002084F8B80310BD022010BDB7
:1028E000D0F8FC2300F56F71104603F03DB910B528
:1028F000044694F8B80301280CD0012084F8B803EA
:10290000206803F048FC206803F085FF002084F86D
:10291000B80310BD022010BD10B50446D0F8FC036A
:1029200003F071F92068D0F8001E41F00101C0F8F1
:10293000001E206A002804D00248016841F0060108
:10294000016010BD10ED00E02DE9F84F04460025B0
:102950000026DFF87CA4207810F0010F0ED0DAF802
:10296000000020F40000CAF80000DAF80000616BF3
:102970000843CAF80000606B00B901252068DFF841
:10298000548410F4002F0ED0D8F80000E16B20F42E
:1029900040100843C8F80000E06BB0F5801F00D17C
:1029A000012500B90126206810F4801F0ED0D8F848
:1029B0000000216C20F440000843C8F80000206C9F
:1029C000B0F5800F00D1012500B90126206810F074
:1029D000807F00D0012510F0200F6ED0FE480168E6
:1029E00041F080510160006800F080500090FB4F82
:1029F000386840F480703860FFF754F981463868D1
:102A000010F4807F0CD1FFF74DF9A0EB090064288A
:102A100002D90320BDE8F88F386810F4807FF2D027
:102A2000DFF8BC93D9F8000000F4407090B3218E19
:102A300001F4407181422DD0D9F8000020F440709B
:102A4000D9F8001041F48031C9F80010D9F800100D
:102A500021F48031C9F80010C9F80000D9F800004D
:102A600010F0010F16D0FFF71DF90746D9F8000046
:102A700010F0020F0ED141F2883BFFF713F9C01B93
:102A8000584502D90320BDE8F88FD9F8000010F0AE
:102A9000020FF2D0206B4FF4407181437ED0DAF800
:102AA000000020F4F810CAF80000D9F80000218EC8
:102AB000C1F30B010843C9F80000207810F0100F93
:102AC0000BD0D8F8000020F08070C8F80000D8F8CB
:102AD0000000A16B0843C8F80000208810F4804F64
:102AE000C04805D00168626E21F440311143016095
:102AF000218811F4004F05D00168A26E21F4402115
:102B000011430160216811F4803F05D00168E26E35
:102B100021F4401111430160216811F4003F05D0F8
:102B20000168226F21F4400111430160217811F006
:102B3000400F05D00168626C21F003011143016070
:102B4000217811F0800F05D00168A26C21F00C01F2
:102B500011430160218811F4807F05D00168E26C87
:102B600021F0300111430160218811F4007F05D06C
:102B70000168226D21F0C00111430160218811F428
:102B8000806F05D00168626D21F4407111430160CE
:102B9000218811F4006F07D0016800E031E0A26DD8
:102BA00021F4406111430160218811F4805F05D058
:102BB0000168E26D21F4405111430160218811F454
:102BC000005F05D00168226E21F44041114301608D
:102BD000216811F4800F05D00168A26F21F0806197
:102BE00011430160216811F4001F17D00168E26FE2
:102BF00021F0006111430160E16FB1F1006F0CD071
:102C00000CE0DAF8001020F4407020F0704021F45D
:102C1000F8110843CAF8000047E70126216811F0BF
:102C2000080F00D0012611F4802F05D00168626FD3
:102C300021F0407111430160216811F4000F06D0AA
:102C40000168D4F8802021F0805111430160664F63
:102C5000012D03D02068B0F1007F7CD1386820F0CE
:102C600080603860FFF71EF80546386810F0006F86
:102C70000BD0FFF717F8401B642802D90320BDE8EA
:102C8000F88F386810F0006FF3D12078574910F0B2
:102C9000010F11D0606B78B90868C0F301400A6871
:102CA000C2F3036263689B0143EA004040EA0260AA
:102CB000227A40EA02700860206810F4002F03D0E6
:102CC000E26BB2F5801F06D010F4801F1CD0206C80
:102CD000B0F5800F18D10868C0F301400A68C2F34C
:102CE000027263689B0143EA0040237B40EA036071
:102CF00040EA02700860D8F80000626A20F01F0005
:102D0000521E1043C8F80000206810F0807F10D0D9
:102D10000868C0F303600A68C2F302726368B4F81B
:102D200010C09B0143EA0C4343EA006040EA027092
:102D30000860206810F0007F0BD06068228A800154
:102D400040EA0240227B40EA0260227A40EA0270B6
:102D50000860386800E015E040F080603860FEF7F9
:102D6000A1FF0546386810F0006F0BD1FEF79AFFFF
:102D7000401B642802D90320BDE8F88F386810F0A2
:102D8000006FF3D0012E7DD1386820F0805038607C
:102D9000FEF788FF0546386810F0005F0BD0FEF79D
:102DA00081FF401B642802D90320BDE8F88F3868F2
:102DB00010F0005FF3D120680D4A10F4002F01D00D
:102DC000E16B21B110F4801F2ED0206C60BB11E0AC
:102DD000083802408C380240403802400070004001
:102DE0007038024090380240003802408438024077
:102DF000883802401068C0F301401168C1F30271C5
:102E000063699B0143EA0040237E40EA036040EA95
:102E100001701060D8F80000A16A20F4F850491E33
:102E200040EA0120C8F80000206810F4001F14D008
:102E3000E06FB0F1006F10D11068C0F3036011684B
:102E4000C1F302716369B4F820C09B0143EA0C43EB
:102E500043EA006040EA01701060207810F0080F2B
:102E600019D01068C0F303601168C1F301416369B0
:102E70009B0143EA014141EA0060217F40EA017081
:102E8000106000E01EE0D8F80000E16A20F4403055
:102E90000843C8F80000386840F080503860FEF7FA
:102EA00001FF0446386810F0005F0BD1FEF7FAFE10
:102EB000001B642802D90320BDE8F88F386810F0A1
:102EC000005FF3D00020BDE8F88F00002DE9F04747
:102ED00004460D46002C17D0DFF84081D8F80000DA
:102EE00000F00F00A84212D2D8F8000020F00F0026
:102EF0002843C8F80000D8F8000000F00F00A842EE
:102F000005D00120BDE8F0870120BDE8F0872078DA
:102F1000434F10F0020F05D03868A16820F0F00090
:102F200008433860207810F0010F3BD060683D49BD
:102F3000012806D002280BD0096811F0020F27D013
:102F40000AE0096811F4003F06D10120BDE8F087CE
:102F5000096811F0007F18D0396821F00301084397
:102F60003860FEF79FFE06463868616800F00C0086
:102F7000B0EB810F16D041F28839FEF793FE801B2B
:102F8000484508D90320BDE8F0870120BDE8F08757
:102F90000120BDE8F0873868616800F00C00B0EBF4
:102FA000810FEAD1D8F8000000F00F00A8420FD935
:102FB000D8F8000020F00F002843C8F80000D8F827
:102FC000000000F00F00A84202D00120BDE8F08709
:102FD000207810F0040F05D03868E16820F4E05044
:102FE00008433860207810F0080F06D0386821694F
:102FF00020F4604040EAC100386000F043F83968CE
:10300000094AC1F30311515CC84008490860002017
:10301000FEF762FE0020BDE8F0870000003C0240A1
:103020000838024000380240349C000808010020A3
:103030000148006870470000080100204DF804EDC9
:10304000FFF7F6FF04490968044AC1F38221515C85
:10305000C8405DF804FB000008380240449C0008AA
:103060004DF804EDFFF7E4FF04490968044AC1F391
:103070004231515CC8405DF804FB00000838024052
:10308000449C00081648006810F00C01154816D042
:10309000154B042912D0082911D1144A116801F0E6
:1030A0003F01D2F800C01CF4800F09D0B3FBF1F04F
:1030B0001168C1F3881100FB01F008E01846704761
:1030C000B0FBF1F01168C1F3881100FB01F0116849
:1030D000C1F30141491C4900B0FBF1F07047000009
:1030E000083802400024F40040787D010438024092
:1030F0002DE9F84F04460027002C16D0DFF868842D
:103100002078A8F1040610F0010FA6F1040570D094
:10311000D8F8000000F00C0004280DD0D8F800000A
:1031200000F00C00082803D010E00120BDE8F88F63
:10313000306810F4800F09D0286810F4003F58D090
:103140006068002855D10120BDE8F88F6068B0F5AF
:10315000803F15D0C8B1B0F5A02F1FD0286820F44B
:1031600080302860286820F480202860606860B380
:10317000FEF798FD8146286810F4003F17D038E02C
:10318000286840F480302860F0E7286820F4803018
:103190002860286820F480202860E7E7286840F449
:1031A00080202860286840F480302860DEE7FEF741
:1031B00079FDA0EB0900642802D90320BDE8F88F4F
:1031C000286810F4003FF2D013E0FEF76BFD814653
:1031D000286810F4003F0CD0FEF764FDA0EB090056
:1031E000642802D90320BDE8F88F286810F4003F56
:1031F000F2D1207810F0020F5CD0D8F8000010F067
:103200000C0F17D0D8F8000000F00C00082803D1EC
:10321000306810F4800F0DD0E06890B3286840F05B
:1032200001002860FEF73EFD8146286810F0020F7D
:1032300012D01EE0286810F0020F05D0E0680128C7
:1032400002D00120BDE8F88F2868216920F0F8003D
:1032500040EAC10028602DE0FEF724FDA0EB090044
:10326000022802D90320BDE8F88F286810F0020F69
:10327000F2D02868216920F0F80040EAC1002860F7
:1032800018E0FFE7286820F001002860FEF70AFD3B
:103290008146286810F0020F0CD0FEF703FDA0EB6A
:1032A0000900022802D90320BDE8F88F286810F031
:1032B000020FF2D1207810F0080F3CD0DFF8ACA25A
:1032C0006069E0B1DAF8000040F00100CAF80000DF
:1032D000FEF7E8FC8146DAF8000010F0020F2AD170
:1032E000FEF7E0FCA0EB0900022802D90320BDE8AC
:1032F000F88FDAF8000010F0020FF1D01BE0DAF8D6
:10330000000020F00100CAF80000FEF7CBFC814667
:10331000DAF8000010F0020F0DD0FEF7C3FCA0EBAE
:103320000900022802D90320BDE8F88FDAF800006E
:1033300010F0020FF1D1207810F0040F75D0DFF8F3
:1033400030A2DAF8000010F0805F0BD1DAF800004C
:1033500040F08050CAF80000DAF8000000F0805019
:1033600000900127DFF80CB2DBF8000010F4807F3A
:103370001BD1DBF8000040F48070CBF80000FEF7B2
:1033800091FC8146DBF8000010F4807F0DD1FEF740
:1033900089FCA0EB0900642802D90320BDE8F88F5E
:1033A000DBF8000010F4807FF1D0A068DFF8C8B12E
:1033B000012819D0F8B105282AD0DBF8000020F048
:1033C0000100CBF80000DBF8000020F00400CBF88F
:1033D0000000A06850B3FEF765FC8146DBF80000F2
:1033E00010F0020F23D04BE0DBF8000040F00100AA
:1033F000CBF80000EDE7DBF8000020F00100CBF88F
:103400000000DBF8000020F00400CBF80000E0E74B
:10341000DBF8000040F00400CBF80000DBF800000F
:1034200040F00100CBF80000D3E731E010E0FEF7F8
:1034300039FCA0EB090141F28830814202D9032016
:10344000BDE8F88FDBF8000010F0020FEFD017E0B6
:10345000FEF728FC8146DBF8000010F0020F0FD0C9
:10346000FEF720FCA0EB090141F28830814202D92D
:103470000320BDE8F88FDBF8000010F0020FEFD159
:10348000012F05D1DAF8000020F08050CAF80000C2
:10349000A069E0B3D8F8001001F00C01082960D051
:1034A000022812D0286820F080702860FEF7FAFB0E
:1034B0000446286810F0007F50D0FEF7F3FB001B95
:1034C000022847D90320BDE8F88F286820F08070D3
:1034D0002860FEF7E7FB0746286810F0007F0BD056
:1034E000FEF7E0FBC01B022802D90320BDE8F88FDD
:1034F000286810F0007FF3D1216A4FF0FF33E069B4
:10350000A26A0843616A03EB5202890100E025E0E8
:1035100041EA0241084394F82C1040EA016040F06F
:1035200000503060286840F080702860FEF7BAFBD9
:103530000446286810F0007F10D1FEF7B3FB001B93
:10354000022802D90320BDE8F88F286810F0007F18
:10355000F3D003E0286810F0007FAED10020BDE872
:10356000F88F0120BDE8F88F083802407438024017
:103570004038024000700040703802407047000040
:1035800038B5044620684268816811F0400F0BD1BD
:1035900011F0010F08D012F0400F05D0E16C01B01E
:1035A0002046BDE83040084711F0020F08D012F065
:1035B000800F05D0216D01B02046BDE8304008479E
:1035C00011F4B07F50D012F0200F4DD011F0400F09
:1035D0000AD094F85D30032B43D0236E43F00403EC
:1035E0002366C3688368009311F0200F09D0236E0F
:1035F00043F00103236683680093036823F04003CC
:10360000036011F4807F06D0206E40F00800206631
:10361000206880680090206E002825D020684168CE
:1036200021F0E0014160012084F85D0002F0020019
:1036300002F00101084318D02068416821F003011D
:1036400041600C4DA06D18B10565A06DFDF702FF3E
:10365000606D002808D00565606DBDE83840FDF755
:10366000F9BEC1688068009038BD2046FFF786FF2C
:1036700038BD0000B547000870B50446002C05D0E1
:103680000025A56294F85D0010B106E0012070BD30
:1036900084F85C50204600F051F8022284F85D2046
:1036A0002068016821F040010160E068B0F5E06F3A
:1036B00001D9002101E04FF48051B0F5706F03D0C3
:1036C000B0F5E06F00D0A5620123D4F830C0BCF1A2
:1036D000000F05D1B0F5E06F01D9226300E023634C
:1036E000A2686068D4F814C01043226942EA0C0250
:1036F0001043228B02F400721043E2691043226AE5
:103700001043A26A1043226810600426626B606A4C
:10371000D4F818C00243E06806EA1C4C40EA0C00EA
:1037200010430843216848602068C16921F40061A2
:10373000C161256684F85D30002070BD2DE9F04F31
:10374000794A0025774B40270168044605204FF051
:10375000020816154FF00309994287B046D1116847
:1037600041F48051116011684FF0200BCDF800B08A
:10377000824601F48051CDF80C90CDE904016B48EC
:103780006946CDE90185FEF765F902AB68486946EF
:1037900083E82006CDE900B8FEF75CF9DFF89881F0
:1037A00064494046C8F800104FF0C061C0E90356B4
:1037B000C8F81450C8F81850C8F81C50C8F8205061
:1037C000C8E90117C8F82450FDF750FF18B1D121FE
:1037D0005AA003F0F4F8C4F8548000220121C8F87C
:1037E00038402320FEF7D0FA232033E0574B99428C
:1037F00035D14D49091F0A6842F480420A600968C0
:10380000029501F4804105910621CDE90018CDE92A
:1038100003904F486946FEF71DF9474F4D48603702
:10382000C7E90005BD603846C7E903567D61BD6143
:10383000FD613D627D62FDF719FF18B1FE213FA0D9
:1038400003F0BDF8A76500220121BC632420FEF728
:103850009BFA2420FEF78CFA07B0BDE8F08F3E4BB0
:1038600099423DD1116841F40051116011680295EF
:1038700001F4005105914421CDE90018CDE90390F0
:1038800036486946FEF7E6F8DFF8AC80294908F1CA
:10389000C00840463039C8F800104FF00061C0E958
:1038A0000356C8F81450C8F81850C8F81C50C8F887
:1038B0002050C8E90117C8F82450FDF7D7FE20B101
:1038C0001EA040F22B1103F07AF8C4F854800022B5
:1038D0000121C8F838405420FEF756FA5420B9E7C1
:1038E0001F4B9942B8D1116841F4801111601168E1
:1038F0000446029501F4801105914FF44071194876
:10390000CDE90018CDE903946946FEF7A3F80097C6
:103910006946CDE903941448CDE90185FEF79AF88C
:103920009AE70000003001404438024000000240A5
:103930000004024058640240C80C00202E2E2F5371
:1039400072632F7370692E6300000000003800401E
:103950000020024058600240003401400010024044
:103960000050014000140240001C024030B400230B
:10397000D0F808C00424BCF1000F04D1D0F804C072
:10398000BCF5827F10D090F85CC0BCF1010F12D062
:103990004FF0010C80F85CC090F85D504FF0000CC7
:1039A000012D0BD0022348E080F85D40134630BC67
:1039B0000A4600F04DB830BC02207047E9B1E2B1D0
:1039C00080F85D40C0F860C00164A0F84420A0F811
:1039D0004620C0F838C0A0F83CC0A0F83EC0C0F8EF
:1039E00050C0C168B1F5E06F09D901684A6822F496
:1039F00080524A601349C16408E001231DE0016858
:103A00004A6842F480524A600F49C1648168B1F546
:103A1000004F04D101680A6822F480420A600168FC
:103A20004A6842F060024A6001680A6812F0400F7A
:103A300003D10A6842F040020A6080F85CC0184670
:103A400030BC7047A7480008CD4800087047000008
:103A500070B44FF0000C90F85C40012C0CD00124A5
:103A600080F85C4090F85D4045680026012C0DD040
:103A7000B5F5827F07D102E070BC022070478568EF
:103A80000DB9042C02D04FF0020C40E0D1B1CAB104
:103A9000C3B190F85D40042C02D0052480F85D404D
:103AA000066681638387C3870264A0F84430A0F868
:103AB0004630C168B1F5E06F07D91749C1641749AD
:103AC000016506E04FF0010C21E01549C16415497C
:103AD000016503D8B0F84610022905D301684A6889
:103AE00022F480524A6004E001684A6842F480523D
:103AF0004A6001684A6842F0E0024A6001680A6868
:103B000012F0400F03D10A6842F040020A6080F8C8
:103B10005C60604670BC7047BD45000857460008B1
:103B2000F3450008894600084DF8044D002390F83D
:103B30005CC0BCF1010F0CD04FF0010C80F85CC0F0
:103B40009C4651B14AB190F85D40012C07D0022348
:103B500035E05DF8044B0220704701232FE0032479
:103B600080F85D40C0F860C081638287C287C0F87A
:103B700040C0A0F844C0A0F846C0C0F84CC0C1681E
:103B8000B1F5E06F02D91149016501E01049016505
:103B90008168B1F5004F04D101680A6842F480429F
:103BA0000A6001684A6842F0A0024A6001680A6837
:103BB00012F0400F03D10A6842F040020A6080F818
:103BC0005CC018465DF8044B70470000F1480008DF
:103BD000114900087047704704284FF0E02104D0D5
:103BE000086920F0040008617047086940F004008B
:103BF0000861704770470000401EB0F1807F01D31C
:103C0000012070474FF0E0214861F020034A107016
:103C100000208861072008610020704723ED00E044
:103C200010B5FFF7E7FF10BD70B50446002C1AD0A1
:103C3000242084F869002068016821F001010160F6
:103C40002068002505602068456020688560204662
:103C500000F0F0F8E56684F8695084F86A5084F85A
:103C60006850002070BD012070BD704770B50446DB
:103C70002368D86919689A6800F00F0CBCF1000F2E
:103C80000AD110F0200F07D011F0200F04D02046E9
:103C9000BDE8704001F068B8BCF1000F79D002F0C7
:103CA000010C01F490755CEA050572D010F0010F6B
:103CB00008D011F4807F05D001251D62E36E43F02A
:103CC0000103E36610F0020F09D012F0010F06D0D5
:103CD000256802232B62E36E43F00403E36610F0D1
:103CE000040F09D012F0010F06D0236804221A62D3
:103CF000E26E42F00202E26610F0080F0BD001F013
:103D0000200252EA0C0206D0236808221A62E26EF0
:103D100042F00802E266E26E002A2ED010F0200F78
:103D200005D011F0200F02D0204601F01DF8E06E02
:103D300010F0080F04D12068806810F0400F22D0E6
:103D4000204600F0BAFF2068816811F0400F15D0BE
:103D5000816821F040018160606E58B118490165A9
:103D6000606EFDF777FB002807D0606E016DBDE83F
:103D7000704008472046FFF778FF70BD2046FFF7E8
:103D800074FF70BD05E02046FFF76FFF0020E0667E
:103D900070BD10F0800F07D011F0800F04D02046C6
:103DA000BDE8704001F0AAB910F0400FF0D011F05A
:103DB000400FEDD02046BDE8704000F08CBF000001
:103DC000A74C000810B50446002C03D094F86900F5
:103DD00010B107E0012010BD002084F868002046E3
:103DE00000F042F8242084F869002068016821F07E
:103DF00001010160204600F0F5FF012818D0606A3B
:103E000010B1204600F0C2FE2068416821F49041C4
:103E100041602068816821F02A0181602068016882
:103E200041F0010101602046BDE8104000F01ABFDA
:103E3000012010BD10B50068084988420DD108481E
:103E4000016821F40031016006486021FDF73EFD64
:103E5000BDE810402620FDF77FBF10BD00440040A4
:103E600040380240000C024000B5006887B012499B
:103E700088421ED11148016841F400310160006898
:103E8000694600F400300590602000900220019007
:103E90000120029003200390072004900848FDF7BA
:103EA000D9FD002226201146FDF76EFF2620FDF7E2
:103EB0005FFF07B000BD00000044004040380240F2
:103EC000000C024090F86A30202B01D0022070478D
:103ED000B9B1B2B190F86830012B14D0012380F849
:103EE00068304165A0F85820A0F85A20FF22816868
:103EF000B1F5805F09D07F2389B1B1F1805F16D021
:103F00001AE00120704702207047016911B1A0F842
:103F10005C2011E040F2FF11A0F85C100CE0016998
:103F200011B1A0F85C3007E0A0F85C2004E0016962
:103F3000A9B13F21A0F85C100021C166222280F8BF
:103F40006A2080F8681001688A6842F001028A607D
:103F50000068016841F49071016000207047A0F88A
:103F60005C30E9E770472DE9F84304460D46914679
:103F70001E4694F86900202802D00220BDE8F8838C
:103F800045B3B9F1000F25D094F86800012824D07A
:103F9000012084F868000027E766212084F8690082
:103FA000FDF780FE8046A4F85090A4F85290B4F833
:103FB000520018B3B4F85200401EA4F85200002278
:103FC000434680212046009601F0CBF840B1032003
:103FD000BDE8F8830120BDE8F8830220BDE8F8833E
:103FE000A068B0F5805F01D1206990B1216815F813
:103FF000010B8862B4F852000028DBD1002243464E
:1040000040212046009601F0ACF848B10320BDE8FD
:10401000F88321682888C0F308008862AD1CE9E7AE
:10402000202084F8690084F868700020BDE8F883D7
:104030007047FEE710B50D4C012251032046FDF7F5
:1040400029FE012220469103FDF724FE002220468E
:104050004FF40041FDF71EFE012000F079FA03F055
:1040600087FCBDE8104003F0A1BD0000001C024029
:10407000154808B5016841F480010160016801F448
:1040800080010091016841F4001101600068002284
:10409000012100F4001000900E20FDF775FE0E20A7
:1040A000FDF766FE002239201146FDF76DFE39202E
:1040B000FDF75EFE00223B201146FDF765FEBDE8E0
:1040C00008403B20FDF754BE303802402DE9F04F48
:1040D000654887B0016841F010010160016801F096
:1040E00010010591016841F020010160016801F0B3
:1040F00020010591016841F080010160016801F033
:1041000080010591016841F001010160016801F041
:1041100001010591016841F040010160016801F071
:1041200040010591016841F480710160016801F46A
:1041300080710591016841F008010160016801F09A
:1041400008010591016841F0020101600068002248
:10415000DFF81891182100F0020005904846FDF79D
:1041600099FDDFF80CA1002240215046FDF792FD99
:10417000DFF800B14FF4A266002231465846FDF741
:1041800089FD4FF468673C4800223946FDF782FDFF
:104190004FF46048394800224146FDF77BFD38481E
:1041A00000220121FDF776FD364800229C21FDF713
:1041B00071FD002469461820009001254846CDE98C
:1041C00001540394FDF746FC20206946CDE9000424
:1041D00048460294FDF73EFC40200090CDE9015492
:1041E000694650460394FDF735FC00966946CDE9D3
:1041F000015458460394FDF72DFC48206946CDE94B
:1042000000041D480294FDF725FC00976946CDE99E
:10421000015419480394FDF71DFCCDF80080694650
:10422000CDE9015415480394FDF714FC0095694647
:10423000CDE9015412480394FDF70CFC9C2069461B
:10424000CDE900050220CDE902040E48FDF702FC8D
:10425000C0206946CDE9000409480294FDF7FAFB45
:1042600007B0BDE8F08F0000303802400010024077
:10427000001402400000024000180240001C0240EE
:1042800000200240000C024013484FF4E062114944
:1042900010B501604FF4827141600021C0E9021243
:1042A0004FF400720161C0E905123822C0E907210C
:1042B00007224162C0E90A1201634163FFF7DCF99A
:1042C000002805D0BDE81040582104A002F077BBBB
:1042D00010BD000000300140380B00202E2E2F535F
:1042E00072632F7370692E630000000014484FF44E
:1042F0000072124910B501604FF4827141604FF4B1
:10430000806181604FF4E061C16000210161C0E91A
:1043100005123822C0E9072107224162C0E90A12CA
:1043200001634163FFF7A8F9002805D0BDE81040FC
:10433000702104A002F043BB10BD00000038004013
:104340009C0B00202E2E2F5372632F7370692E63E7
:104350000000000013484FF4E062114910B50160FD
:104360004FF4827141600021C0E902124FF40072E3
:104370000161C0E905123822C0E907210722416224
:10438000C0E90A1201634163FFF776F9002805D0FE
:10439000BDE81040882104A002F011BB10BD000050
:1043A00000340140000C00202E2E2F5372632F7317
:1043B00070692E630000000013484FF440721149E9
:1043C00010B501604FF4827141600021C0E9021212
:1043D0004FF400720161C0E905120722C161016258
:1043E0004162C0E90A12016308214163FFF744F901
:1043F000002805D0BDE81040A02104A002F0DFBADB
:1044000010BD000000500140640C00202E2E2F53E0
:1044100072632F7370692E63000000000E480C2237
:104420000C4910B501604FF4E13141600021816019
:10443000C160C0E904128161C16101624162FFF79C
:10444000C1FC002805D0BDE810404E2103A002F0B9
:10445000B6BA10BD00440040E80D00202E2E2F53A8
:1044600072632F75736172742E6300000949002214
:10447000094810B501F0E1F90849074801F0F0FBDF
:104480000749054800F08DFFBDE81040024801F0E3
:104490009DBC0000B0000020580E0020EC01002060
:1044A000F4000020FEE770470148FDF73DBE000024
:1044B0007C1000202DE9F84F07460E46D7F8008003
:1044C000C6EBC60007EB800000F13804A169606903
:1044D000451AA068A84200D20546E81CC11700EBA7
:1044E00091704FEAA00A08EB461918E0151AA06867
:1044F000A84200D20546EA1CD01702EB90704FEAA2
:10450000A00A387C0090ABB2E1684046F2B202F0FB
:104510003BFAE0682844E060A0692844A061D9F82B
:10452000180980B2504505D96269A069904201D24C
:10453000002ADBD1002D07DC0120B040D8F8341868
:1045400021EA0000C8F834080020BDE8F88F000018
:1045500070B50D4D0022102104462846FDF79AFB48
:104560000A482A2102220170014644700848FFF7D8
:10457000DBFA3220FDF7F0F82846BDE87040012252
:104580001021FDF787BB000000000240A1000020C1
:10459000380B0020704700000148FEF7F1BF000013
:1045A000380B00200148FEF7EBBF00009C0B0020F9
:1045B0000148FEF7E5BF0000000C00200168C96853
:1045C000026C1180016C891C0164B0F84610491E10
:1045D000A0F84610B0F84610002909D101684A68D1
:1045E00022F040024A60C18F002901D100F070B86A
:1045F0007047B0F846300268016C012B13D9D268BD
:104600000A80016C891C0164B0F84610891EA0F86C
:104610004610B0F8461001290ED101684A6842F4EC
:1046200080524A6008E0127B4B1C03640A70B0F8A9
:104630004610491EA0F84610B0F84610002909D1CE
:1046400001684A6822F060024A60C18F002901D1E6
:1046500000F03EB87047816B02680988D160816BB9
:10466000891C8163C18F491EC187C18F00290AD16E
:1046700001684A6822F080024A60B0F846100029BA
:1046800001D100F025B87047C38F0268816B022BFF
:1046900008D30988D160816B891C8163C18F891E11
:1046A000C18706E04B1C836309781173C18F491ED3
:1046B000C187C18F00290AD101684A6822F08002AF
:1046C0004A60B0F84610002901D100F001B87047E7
:1046D00010B50446FDF7E6FA02462068416821F06D
:1046E000200141606421204600F0ABF818B1206E33
:1046F00040F020002066216E012029B184F85D0081
:104700002046FEF73BFF10BD94F85D10042905D04C
:1047100084F85D002046FFF75EFA10BD84F85D0066
:104720002046FFF793F910BD10B504462068416894
:1047300021F060014160FDF7B5FA64210246204690
:1047400000F041F818B1206E40F0200020660120F2
:1047500084F85D00206E18B12046FEF70FFF10BDF3
:104760002046FFF773F910BD38B50446FDF79AFAF5
:1047700002462068416821F0A00141606421204682
:1047800000F05FF818B1206E40F020002066A068AD
:1047900018B92068C16880680090012084F85D0025
:1047A000206E18B12046FEF7E9FE38BD2046FFF71F
:1047B00011FA38BD10B5806B0021A0F84610C187F2
:1047C000FEF7DCFE10BDF8B504460E4615466068DF
:1047D000B0F5827F0BD1A068B0F5004F02D0B0F5E4
:1047E000806F04D12068016821F04001016000223F
:1047F000334680212046009500F0EEF828B1206E67
:1048000040F0200020660320F8BD6068B0F5827F8C
:1048100015D1A068B0F5004F02D0B0F5806F0ED171
:10482000002233464FF4C0612046009500F07FF827
:1048300028B1206E40F0200020660320F8BD002043
:10484000F8BDF8B504460E4615463346002220460C
:104850004FF4C051009500F06AF828B1206E40F086
:10486000200020660320F8BD002233468021204628
:10487000009500F0B1F828B1206E40F020002066CD
:104880000320F8BD002233464FF4C0612046009556
:1048900000F04DF828B1206E40F020002066032083
:1048A000F8BD0020F8BD0168C968026C1180016C78
:1048B000891C0164B0F84610491EA0F84610B0F8F3
:1048C0004610002901D1FFF72FBF704701680A7B0E
:1048D000016C4B1C03640A70B0F84610491EA0F826
:1048E0004610B0F84610002901D1FFF71DBF7047F0
:1048F000816B02680988D160816B891C8163C18FDB
:10490000491EC187C18F002901D1FFF72DBF704714
:10491000816B4A1C8263026809781173C18F491E3A
:10492000C187C18F002901D1FFF71EBF70472DE954
:10493000F84304460E4617461D46DDF820802068E1
:1049400080683040B84244D0B6F5C06F05D127B971
:104950002068007B00909DF80000B5F1FF3F33D048
:104960002DB1FDF79FF9A0EB0800A8422CD32068D9
:10497000416821F0E00141606068B0F5827F0BD1B1
:10498000A068B0F5004F02D0B0F5806F04D1206868
:10499000016821F040010160A06AB0F5005F0AD112
:1049A000206801684DF6FF721140016020680168BF
:1049B00041F400510160012084F85D00002084F87A
:1049C0005C000320BDE8F883206880683040B8426E
:1049D000BAD10020BDE8F8832DE9F04104460F4626
:1049E00090461D46069E20688068384040453AD073
:1049F000B5F1FF3F32D025B1FDF754F9801BA84235
:104A00002CD32068416821F0E00141606068B0F576
:104A1000827F0BD1A068B0F5004F02D0B0F5806F57
:104A200004D12068016821F040010160A06AB0F55E
:104A3000005F0AD1206801684DF6FF7211400160E5
:104A40002068016841F400510160012084F85D0094
:104A5000002084F85C000320BDE8F08120688068B5
:104A600038404045C4D10020BDE8F081704710B502
:104A7000FDF71EF9BDE81040FFF7D2B82A4870B51F
:104A8000B4B0016841F080510160006800F08050CE
:104A900032902648016821F4404141F48041016090
:104AA00000680224902500F44040329001202190BB
:104AB0000F26000422908001CDE927400520CDE992
:104AC0002B40CDE9296521A8FEF712FB00B1FEE7D6
:104AD0004FF4A0500021CDE92F504FF48050319079
:104AE000CDE92D642DA8FEF7F1F900B1FEE71048DD
:104AF0000090002012901F906846FDF725FF00B13E
:104B0000FEE7FEF795FA4FF47A71B0FBF1F0FFF78C
:104B100073F80420FFF760F80022501E1146FDF7DD
:104B200033F934B070BD00004038024000700040DE
:104B3000800020000F48016841F4700101600E48B8
:104B4000016841F0010101600C4A00211160026816
:104B500022F4102222F080720260031D084A1A60BB
:104B6000026822F480220260064801605806064965
:104B70000860704788ED00E00038024008380240C5
:104B8000103000240C38024008ED00E090F82410AA
:104B900011F0010F06D001684A68836A22F40032DE
:104BA0001A434A6090F8241011F0020F06D00168F1
:104BB0004A68C36A22F480321A434A6090F824108B
:104BC00011F0040F06D001684A68036B22F48022BA
:104BD0001A434A6090F8241011F0080F06D00168BB
:104BE0004A68436B22F400421A434A6090F824104A
:104BF00011F0100F06D001688A68836B22F480528E
:104C00001A438A6090F8241011F0200F06D0016832
:104C10008A68C36B22F400521A438A6090F8241009
:104C200011F0400F11D001684A68036C22F4801221
:104C30001A434A60016CB1F5801F06D101684A68C9
:104C4000436C22F4C0021A434A6090F8241011F019
:104C5000800F06D001684A68806C22F4002210435D
:104C60004860704738B504460025E566FDF71AF838
:104C70002168096811F0080F0CD06FF07E410346DF
:104C80000022204600914FF4001100F06AFA08B1AA
:104C9000032038BD202084F8690084F86A0084F875
:104CA0006850002038BD10B5806B0021A0F85A1064
:104CB000A0F85210FEF7D9FF10BD01680A6822F46F
:104CC00090720A6001688A6822F001028A602021DD
:104CD00080F86A10704710B501680A6822F0400237
:104CE0000A60202180F86910FFF7A2F9002010BDAA
:104CF00010B50168CA690B68C2F30012002A03F0FC
:104D0000100325D0002B23D010230B62202180F824
:104D10006910426E002182F834100E4A01689142F7
:104D200016D10D4A11680C6824F010040C600B4C6D
:104D30000221217011680B6211680A6842F01002AA
:104D40000A6007494FF4FA72FFF7BCF8054908708A
:104D500010BD000000440040E80D00204400002089
:104D6000400200201400002010B5B0F85C2090F83C
:104D70006A300168222B05D0886940F008008861FC
:104D8000022010BD8368B3F5805F01D103697BB158
:104D9000496A0A40416D4B1C43650A70B0F85A10CD
:104DA000491E0904090CA0F85A1009D0002010BDB2
:104DB000436D496A11401980416D891C4165EDE7D9
:104DC00001680A6822F490720A6001688A6822F019
:104DD00001028A60202180F86A10FFF7C3F80020E2
:104DE00010BD000070B50446102100220025236983
:104DF000A068D4F81CC01843636943EA0C0303435A
:104E00002068D0F800C0B94E0CEA060C4CEA030347
:104E1000036020684368D4F80CC023F4405343EA8D
:104E20000C034360236AA06903432068D0F808C0DC
:104E30002CF4306C4CEA030383602068AC4BA0F187
:104E4000804CBCF5883C23D0A0F1804CBCF5884C4C
:104E500031D0A0F1804CBCF5904C3FD0A0F1804CFB
:104E6000BCF5984C4DD0A0F1804CBCF5A04C5BD06B
:104E7000A0F1804CBCF58A3C6CD0A0F1804CBCF514
:104E8000F04C7FD0A0F1804CBCF5F84C71D0A4E080
:104E90001B6813F0030306D0012B08D0022B04D0AB
:104EA000032B40D105E0012197E0022195E0042188
:104EB00093E0082191E01B6813F00C0306D0042B4B
:104EC00008D0082B04D00C2B2DD105E0002184E064
:104ED000022182E0042180E008217EE01B6813F0BB
:104EE000300306D0102B08D0202B04D0302B74D1E7
:104EF00005E0002171E002216FE004216DE008214E
:104F00006BE01B6813F0C00306D0402B08D0802B49
:104F100004D0C02B61D105E000215EE002215CE0FD
:104F200004215AE0082158E01B6813F4407309D0AB
:104F3000B3F5807F0AD0B3F5007F05D0B3F5407F8D
:104F40004BD105E0002148E0022146E0042144E085
:104F5000082142E01B6813F440630BD0B3F5806F67
:104F60000CD0B3F5006F07D0B3F5406F35D107E033
:104F700008E01DE0012130E002212EE004212CE0B8
:104F800008212AE01B6813F4405309D0B3F5805F71
:104F90000AD0B3F5005F05D0B3F5405F1DD105E041
:104FA00000211AE0022118E0042116E0082114E093
:104FB0001B6813F4404309D0B3F5804F0AD0B3F512
:104FC000004F05D0B3F5404F07D105E0002104E0C4
:104FD000022102E0042100E00821E369B3F5004F5B
:104FE00008D009297FD2DFE801F046525E7E677E55
:104FF0007E7E7400092935D2DFE801F0050F1934EF
:10500000213434342B00FEF719F84100606801EBBD
:105010005001B1FBF0F082B225E0FEF721F841002B
:10502000606801EB5001B1FBF0F082B21BE06068F8
:10503000304901EB5001B1FBF0F082B213E0FEF712
:1050400021F84100606801EB5001B1FBF0F082B241
:1050500009E060684FF4803101EB5001B1FBF0F0E2
:1050600082B200E0012522F00F00C2F342010843A2
:105070002168C86038E0FDF7E1FF0146606801EB98
:105080005001B1FBF0F0216880B2C8602CE0FDF760
:10509000E7FF0146606801EB5001B1FBF0F02168C9
:1050A00080B2C86020E06168134A02EB5102B2FB93
:1050B000F1F189B2C16017E0FDF7E4FF01466068D5
:1050C00001EB5001B1FBF0F0216880B2C8600BE049
:1050D00009E061684FF4004202EB5102B2FBF1F1CA
:1050E00089B2C16000E00125284670BDF369FFEF79
:1050F000903802400048E8010024F40090F869105C
:10510000212901D002207047B0F8521021B18168E6
:10511000B1F5805F0CD00DE001680A6822F08002D2
:105120000A600068016841F040010160002070479A
:10513000016961B1C16C4A1CC2640268097891625C
:10514000B0F85210491EA0F8521000207047C16CF0
:1051500002680988C1F308019162C16C891CC164AD
:10516000EEE72DE9F0410446884617461E46069DA7
:105170002068C06938EA000020D00020B84227D15A
:10518000B5F1FF3F1CD025B1FCF78CFD801BA84278
:1051900016D32068016821F4D0710160206881680D
:1051A00021F001018160202084F8690084F86A0000
:1051B000002084F868000320BDE8F0810120DDE7CD
:1051C0002068C06938EA000005D00020B842D7D076
:1051D0000020BDE8F0810120F8E70000044810B588
:1051E000FFF786FDBDE810400148FEF73FBD000017
:1051F000E80D0020D0F81802002804D00021C0F8E3
:105200001412002070470220704770B50546D5F88B
:105210001842284600F0EAFBC4F80C02D5F8180240
:1052200048B1D5F81C12D4F80402CA6804F5037119
:105230009047002070BD022070BD70B50446002567
:105240002046812100F01FFB0121204600F01BFBBE
:105250008221204600F017FBD4F8180250B1D4F890
:105260001C0240688047D4F8180202F077FC002046
:10527000C4F81802284670BD10B5D0F81842D0F80E
:105280001C1200290BD094F80002FF2807D08B686D
:10529000214694F801229847FF2084F8000200205C
:1052A00010BD00000A210180004870471401002051
:1052B00043210180004870476401002043210180A0
:1052C00000487047200100204321018000487047BA
:1052D000A801002070B505460026287C00282DD0A6
:1052E000402328460222812100F0D6FB4023284695
:1052F0000222012100F0D0FB08232846032282214C
:1053000000F0CAFB4FF4077003F0E6FEC5F8180280
:1053100018B30446D5F81C02006880470020C4F882
:105320001402C4F81802287CC8B1D4F8042240231F
:105330000121284600F0C3FB304670BD02222846FA
:1053400081214FF4007300F0A7FB022228460121BF
:105350004FF4007300F0A0FBCEE70126ECE7D4F891
:10536000042201214FF40073284600F0A8FBE3E774
:1053700010B5D0F81812002911D0027C3AB1D1F83A
:1053800004224023012100F09AFB002010BDD1F837
:10539000042201214FF4007300F091FBF5E7022095
:1053A00010BD02460220002902D0C2F81C120020C3
:1053B0007047D0F81802C0F8041200207047D0F8E7
:1053C0001802C0F80812C0F8102200207047000030
:1053D00070B505460C46D5F81862207810F06001CB
:1053E00026D020292CD1E288D2B110F0800F0BD02A
:1053F000D5F81C1260788B6831469847E2883146B0
:10540000284600F095F81BE0607886F80002A07945
:1054100086F801023146E288284600F06FF80FE076
:10542000D5F81C12002260788B682146984707E067
:1054300060780A2804D103490122284600F078F850
:10544000002070BD1001002010B5D0F818120029FE
:1054500011D0D1F814220AB1012010BD0122C1F8E7
:105460001422B1F8102293B2D1F80822812100F061
:10547000D3FB002010BD022010BD10B5D0F81422BF
:1054800052689047002010BD10B5044694F8FC0106
:10549000022806D0032804D02046BDE8104000F0C2
:1054A00021B8488801280CD10020C4F80402D4F89F
:1054B00014028268204690472046BDE8104000F064
:1054C00044B810BD10B513460A46002100F0F7FAA3
:1054D000002010BD10B513460A46002100F09CFBC9
:1054E000002010BD10B504468021204600F06BFB63
:1054F0002046BDE81040002100F065BB10B5032335
:10550000C0F8F431C0F80821C0F80C2113460A464F
:10551000002100F0D4FA002010BD10B50521C0F81C
:10552000F41100231A46194600F0C9FA002010BDF4
:1055300010B50223C0F8F4318261C26113460A46F5
:10554000002100F069FB002010BD10B50421C0F857
:10555000F41100231A46194600F05EFB002010BD2E
:1055600004A00A46024910B500F046F9004810BDF3
:105570007C14002043444320436F6E66696700003B
:105580001220088000487047D400002004A00A467A
:10559000024910B500F030F9004810BD7C1400201D
:1055A00043444320496E7465726661636500000080
:1055B0000420088000487047D000002004A00A465C
:1055C000024910B500F018F9004810BD7C14002005
:1055D00053544D6963726F656C656374726F6E6965
:1055E0006373000004A00A46024910B500F004F9F4
:1055F000004810BD7C140020464942455254524197
:10560000444520564F412B204F504D0004A00A46E0
:10561000024910B500F0F0F8004810BD7C140020DD
:105620003030303030303030303031410000000028
:105630000C20088000487047E8000020CA88012A32
:1056400001D0FFF74FBF90F8FC21022A03D0032AB4
:1056500008D0FFF747BF00218160012200F1080157
:10566000FFF766BF0122011DFFF762BFF8B50446D0
:105670000D466988080A062872D006DC012815D074
:1056800002281BD0032804D12BE0072876D00F284E
:1056900004D029462046FFF725FFF8BDD4F81012A4
:1056A000207CCA6969469047014676E0D4F810121A
:1056B000207C0A686946904701466EE0207C0226FD
:1056C00038B1D4F81402C16A6846884701464E7062
:1056D00063E0D4F81402816A6846884701464E7038
:1056E0005BE0C8B2062834D2DFE800F0030B131BDE
:1056F000232BD4F81012207C4A6869469047014653
:105700004BE0D4F81012207C8A6869469047014625
:1057100043E0D4F81012207CCA68694690470146DD
:105720003BE0D4F81012207C0A6969469047014694
:1057300033E0D4F81012207C4A696946904701464C
:105740002BE0D4F81012207C8A6969469047014604
:1057500023E029462046FFF7C5FEF8BD00E00DE036
:10576000207C20B129462046FFF7BCFEF8BDD4F8C6
:105770001402416B6846884701460EE0207C20B148
:1057800029462046FFF7AEFEF8BDD4F81402016B9F
:1057900068468847014607204870BDF80000002889
:1057A000F2D0EA88002AEFD0824200D90246009265
:1057B0002046FFF7BDFEF8BD00210278002A05D083
:1057C000491CC9B2401C0278002AF9D1084670472A
:1057D00090F8FC21022A03D0032A01D0FFF782BEF1
:1057E0000121C160D0F8041209B10321C160022275
:1057F00000F10C01FFF79CBE70B504460D4616463D
:10580000002C19D02046FFF7D7FF022101EB400002
:1058100030802870032102206970217800290BD084
:10582000002214F8013B411C2B54C9B2481CC0B2E1
:105830006A5421780029F4D170BD10B5002810D029
:10584000D0F8143213B10023C0F8143209B1C0F8F3
:105850001012012180F8FC11027000F0CBF800203A
:1058600010BD022010BD10B5D0F820020024FCF7B6
:105870007EFB30B1012801D0022801D0022400E0D3
:105880000124204610BD10B5D0F820020024FCF7FA
:105890004AFB30B1012801D0022801D0022400E0E7
:1058A0000124204610BD70B504461346002909D0D6
:1058B000D4F814024269002A50D094F8FC0103285D
:1058C0004AD04BE004F11400D4F8F4110025022969
:1058D00038D18268C1688A420DD9511A81608AB272
:1058E00019462046FFF7F6FD002320461A461946C2
:1058F00000F0E5F826E04068B0FBF1F201FB12028F
:105900009AB9884211D3D4F8F81188420DD20022F6
:1059100020461146FFF7DEFDC4F8F85100231A4671
:105920001946204600F0CBF80CE0D4F81402C16808
:1059300029B194F8FC01032801D12046884720466C
:10594000FFF7EBFD94F80002012807D1204600F094
:1059500090F984F8005201E020469047002070BD85
:1059600010B5044608461146002808D0D4F8141291
:105970008A6942B394F8FC11032925D027E004F585
:105980008270D4F8F421032A21D1D0F80CC08368A6
:1059900063450BD9A3EB0C038360C068834200D33B
:1059A000034620469AB2FFF78DFD10E0D4F81402AA
:1059B000016929B194F8FC01032801D120468847E8
:1059C0002046FFF7C2FD02E0014620469047002036
:1059D00010BD0020704710B5012180F8FC11D0F8EF
:1059E0001422017952689047002010BDD0F820029F
:1059F000FCF7E7BA10B5017861BB17490222C1F87C
:105A0000FC03C0F820124FF0A04008600620486058
:105A10000020C1E90320C1E90502C8610122086232
:105A20004862C1E90B200846FCF76CFE20B10BA0D0
:105A300040F23B1100F0C3FF07488021FCF730FA29
:105A4000054840220021FCF72FFA0348802201215B
:105A5000FCF72AFA002010BD7C1000202E2E2F53B8
:105A600072632F757362645F636F6E662E630000EE
:105A70000A06D0F8200201F07F01C1EBC10100EB62
:105A8000810002D590F83A00704790F8FA0170470B
:105A9000002070470020704770B51D46D0F82002E6
:105AA000002413462A46FCF796FA30B1012801D0AB
:105AB000022801D0022400E00124204670BD10B568
:105AC000D0F820020024FCF7B5FA30B1012801D04B
:105AD000022801D0022400E00124204610BD70B548
